{
  "address": "0xF369B70bBe075b63c27bF81Aa9701768865c67C1",
  "abi": [
    {
      "inputs": [
        {
          "internalType": "address",
          "name": "_l2Bridge",
          "type": "address"
        },
        {
          "internalType": "address",
          "name": "_l1Token",
          "type": "address"
        },
        {
          "internalType": "address",
          "name": "owner",
          "type": "address"
        },
        {
          "internalType": "string",
          "name": "name",
          "type": "string"
        },
        {
          "internalType": "string",
          "name": "symbol",
          "type": "string"
        },
        {
          "internalType": "uint8",
          "name": "decimals",
          "type": "uint8"
        }
      ],
      "stateMutability": "nonpayable",
      "type": "constructor"
    },
    {
      "anonymous": false,
      "inputs": [
        {
          "indexed": true,
          "internalType": "address",
          "name": "owner",
          "type": "address"
        },
        {
          "indexed": true,
          "internalType": "address",
          "name": "spender",
          "type": "address"
        },
        {
          "indexed": false,
          "internalType": "uint256",
          "name": "value",
          "type": "uint256"
        }
      ],
      "name": "Approval",
      "type": "event"
    },
    {
      "anonymous": false,
      "inputs": [
        {
          "indexed": true,
          "internalType": "address",
          "name": "account",
          "type": "address"
        }
      ],
      "name": "Blacklisted",
      "type": "event"
    },
    {
      "anonymous": false,
      "inputs": [
        {
          "indexed": true,
          "internalType": "address",
          "name": "newBlacklister",
          "type": "address"
        }
      ],
      "name": "BlacklisterChanged",
      "type": "event"
    },
    {
      "anonymous": false,
      "inputs": [
        {
          "indexed": true,
          "internalType": "address",
          "name": "_account",
          "type": "address"
        },
        {
          "indexed": false,
          "internalType": "uint256",
          "name": "_amount",
          "type": "uint256"
        }
      ],
      "name": "Burn",
      "type": "event"
    },
    {
      "anonymous": false,
      "inputs": [
        {
          "indexed": true,
          "internalType": "address",
          "name": "_account",
          "type": "address"
        },
        {
          "indexed": false,
          "internalType": "uint256",
          "name": "_amount",
          "type": "uint256"
        }
      ],
      "name": "Mint",
      "type": "event"
    },
    {
      "anonymous": false,
      "inputs": [
        {
          "indexed": true,
          "internalType": "address",
          "name": "previousOwner",
          "type": "address"
        },
        {
          "indexed": true,
          "internalType": "address",
          "name": "newOwner",
          "type": "address"
        }
      ],
      "name": "OwnerChanged",
      "type": "event"
    },
    {
      "anonymous": false,
      "inputs": [
        {
          "indexed": false,
          "internalType": "address",
          "name": "pauser",
          "type": "address"
        }
      ],
      "name": "Paused",
      "type": "event"
    },
    {
      "anonymous": false,
      "inputs": [
        {
          "indexed": true,
          "internalType": "address",
          "name": "previousPauser",
          "type": "address"
        },
        {
          "indexed": true,
          "internalType": "address",
          "name": "newPauser",
          "type": "address"
        }
      ],
      "name": "PauserChanged",
      "type": "event"
    },
    {
      "anonymous": false,
      "inputs": [
        {
          "indexed": true,
          "internalType": "address",
          "name": "from",
          "type": "address"
        },
        {
          "indexed": true,
          "internalType": "address",
          "name": "to",
          "type": "address"
        },
        {
          "indexed": false,
          "internalType": "uint256",
          "name": "value",
          "type": "uint256"
        }
      ],
      "name": "Transfer",
      "type": "event"
    },
    {
      "anonymous": false,
      "inputs": [
        {
          "indexed": true,
          "internalType": "address",
          "name": "account",
          "type": "address"
        }
      ],
      "name": "UnBlacklisted",
      "type": "event"
    },
    {
      "anonymous": false,
      "inputs": [
        {
          "indexed": false,
          "internalType": "address",
          "name": "pauser",
          "type": "address"
        }
      ],
      "name": "Unpaused",
      "type": "event"
    },
    {
      "inputs": [
        {
          "internalType": "address",
          "name": "owner",
          "type": "address"
        },
        {
          "internalType": "address",
          "name": "spender",
          "type": "address"
        }
      ],
      "name": "allowance",
      "outputs": [
        {
          "internalType": "uint256",
          "name": "",
          "type": "uint256"
        }
      ],
      "stateMutability": "view",
      "type": "function"
    },
    {
      "inputs": [
        {
          "internalType": "address",
          "name": "spender",
          "type": "address"
        },
        {
          "internalType": "uint256",
          "name": "amount",
          "type": "uint256"
        }
      ],
      "name": "approve",
      "outputs": [
        {
          "internalType": "bool",
          "name": "",
          "type": "bool"
        }
      ],
      "stateMutability": "nonpayable",
      "type": "function"
    },
    {
      "inputs": [
        {
          "internalType": "address",
          "name": "account",
          "type": "address"
        }
      ],
      "name": "balanceOf",
      "outputs": [
        {
          "internalType": "uint256",
          "name": "",
          "type": "uint256"
        }
      ],
      "stateMutability": "view",
      "type": "function"
    },
    {
      "inputs": [
        {
          "internalType": "address",
          "name": "account",
          "type": "address"
        }
      ],
      "name": "blacklist",
      "outputs": [],
      "stateMutability": "nonpayable",
      "type": "function"
    },
    {
      "inputs": [],
      "name": "blacklister",
      "outputs": [
        {
          "internalType": "address",
          "name": "",
          "type": "address"
        }
      ],
      "stateMutability": "view",
      "type": "function"
    },
    {
      "inputs": [
        {
          "internalType": "address",
          "name": "account",
          "type": "address"
        },
        {
          "internalType": "uint256",
          "name": "amount",
          "type": "uint256"
        }
      ],
      "name": "burn",
      "outputs": [],
      "stateMutability": "nonpayable",
      "type": "function"
    },
    {
      "inputs": [
        {
          "internalType": "address",
          "name": "account",
          "type": "address"
        }
      ],
      "name": "changeOwner",
      "outputs": [],
      "stateMutability": "nonpayable",
      "type": "function"
    },
    {
      "inputs": [],
      "name": "decimals",
      "outputs": [
        {
          "internalType": "uint8",
          "name": "",
          "type": "uint8"
        }
      ],
      "stateMutability": "view",
      "type": "function"
    },
    {
      "inputs": [
        {
          "internalType": "address",
          "name": "spender",
          "type": "address"
        },
        {
          "internalType": "uint256",
          "name": "subtractedValue",
          "type": "uint256"
        }
      ],
      "name": "decreaseAllowance",
      "outputs": [
        {
          "internalType": "bool",
          "name": "",
          "type": "bool"
        }
      ],
      "stateMutability": "nonpayable",
      "type": "function"
    },
    {
      "inputs": [
        {
          "internalType": "address",
          "name": "spender",
          "type": "address"
        },
        {
          "internalType": "uint256",
          "name": "addedValue",
          "type": "uint256"
        }
      ],
      "name": "increaseAllowance",
      "outputs": [
        {
          "internalType": "bool",
          "name": "",
          "type": "bool"
        }
      ],
      "stateMutability": "nonpayable",
      "type": "function"
    },
    {
      "inputs": [
        {
          "internalType": "address",
          "name": "account",
          "type": "address"
        }
      ],
      "name": "isBlacklisted",
      "outputs": [
        {
          "internalType": "bool",
          "name": "",
          "type": "bool"
        }
      ],
      "stateMutability": "view",
      "type": "function"
    },
    {
      "inputs": [],
      "name": "l1Token",
      "outputs": [
        {
          "internalType": "address",
          "name": "",
          "type": "address"
        }
      ],
      "stateMutability": "view",
      "type": "function"
    },
    {
      "inputs": [],
      "name": "l2Bridge",
      "outputs": [
        {
          "internalType": "address",
          "name": "",
          "type": "address"
        }
      ],
      "stateMutability": "view",
      "type": "function"
    },
    {
      "inputs": [
        {
          "internalType": "address",
          "name": "account",
          "type": "address"
        },
        {
          "internalType": "uint256",
          "name": "amount",
          "type": "uint256"
        }
      ],
      "name": "mint",
      "outputs": [],
      "stateMutability": "nonpayable",
      "type": "function"
    },
    {
      "inputs": [],
      "name": "name",
      "outputs": [
        {
          "internalType": "string",
          "name": "",
          "type": "string"
        }
      ],
      "stateMutability": "view",
      "type": "function"
    },
    {
      "inputs": [],
      "name": "owner",
      "outputs": [
        {
          "internalType": "address",
          "name": "",
          "type": "address"
        }
      ],
      "stateMutability": "view",
      "type": "function"
    },
    {
      "inputs": [],
      "name": "pause",
      "outputs": [],
      "stateMutability": "nonpayable",
      "type": "function"
    },
    {
      "inputs": [],
      "name": "paused",
      "outputs": [
        {
          "internalType": "bool",
          "name": "",
          "type": "bool"
        }
      ],
      "stateMutability": "view",
      "type": "function"
    },
    {
      "inputs": [],
      "name": "pauser",
      "outputs": [
        {
          "internalType": "address",
          "name": "",
          "type": "address"
        }
      ],
      "stateMutability": "view",
      "type": "function"
    },
    {
      "inputs": [
        {
          "internalType": "address",
          "name": "account",
          "type": "address"
        }
      ],
      "name": "setPauser",
      "outputs": [],
      "stateMutability": "nonpayable",
      "type": "function"
    },
    {
      "inputs": [
        {
          "internalType": "bytes4",
          "name": "_interfaceId",
          "type": "bytes4"
        }
      ],
      "name": "supportsInterface",
      "outputs": [
        {
          "internalType": "bool",
          "name": "",
          "type": "bool"
        }
      ],
      "stateMutability": "pure",
      "type": "function"
    },
    {
      "inputs": [],
      "name": "symbol",
      "outputs": [
        {
          "internalType": "string",
          "name": "",
          "type": "string"
        }
      ],
      "stateMutability": "view",
      "type": "function"
    },
    {
      "inputs": [],
      "name": "totalSupply",
      "outputs": [
        {
          "internalType": "uint256",
          "name": "",
          "type": "uint256"
        }
      ],
      "stateMutability": "view",
      "type": "function"
    },
    {
      "inputs": [
        {
          "internalType": "address",
          "name": "recipient",
          "type": "address"
        },
        {
          "internalType": "uint256",
          "name": "amount",
          "type": "uint256"
        }
      ],
      "name": "transfer",
      "outputs": [
        {
          "internalType": "bool",
          "name": "",
          "type": "bool"
        }
      ],
      "stateMutability": "nonpayable",
      "type": "function"
    },
    {
      "inputs": [
        {
          "internalType": "address",
          "name": "sender",
          "type": "address"
        },
        {
          "internalType": "address",
          "name": "recipient",
          "type": "address"
        },
        {
          "internalType": "uint256",
          "name": "amount",
          "type": "uint256"
        }
      ],
      "name": "transferFrom",
      "outputs": [
        {
          "internalType": "bool",
          "name": "",
          "type": "bool"
        }
      ],
      "stateMutability": "nonpayable",
      "type": "function"
    },
    {
      "inputs": [
        {
          "internalType": "address",
          "name": "account",
          "type": "address"
        }
      ],
      "name": "unBlacklist",
      "outputs": [],
      "stateMutability": "nonpayable",
      "type": "function"
    },
    {
      "inputs": [],
      "name": "unpause",
      "outputs": [],
      "stateMutability": "nonpayable",
      "type": "function"
    },
    {
      "inputs": [
        {
          "internalType": "address",
          "name": "newBlacklister",
          "type": "address"
        }
      ],
      "name": "updateBlacklister",
      "outputs": [],
      "stateMutability": "nonpayable",
      "type": "function"
    }
  ],
  "transactionHash": "0xb6a14abebb01c4b6254f09fd5d101d5397c0918b6c04464f87f6ca48a4402d50",
  "args": [
    "0x4200000000000000000000000000000000000010",
    "0x07865c6e87b9f70255377e024ace6630c1eaa37f",
    "0xc1eba383D94c6021160042491A5dfaF1d82694E6",
    "USD Coin",
    "USDC",
    6
  ],
  "numDeployments": 1,
  "solcInputHash": "4a90523056145d9c3253504b9899d453",
  "bytecode": "0x60806040523480156200001157600080fd5b50604051620021803803806200218083398101604081905262000034916200037a565b858584848181816003908051906020019062000052929190620001ea565b50805162000068906004906020840190620001ea565b505060058054600680546001600160a01b039889166001600160a01b031990911617905560ff881660ff1996909716610100026001600160a81b031990911617601217949094169490941790925550620000c0915050565b620000cb84620000d7565b50505050505062000474565b6001600160a01b038116620001335760405162461bcd60e51b815260206004820152601b60248201527f6163636f756e7420697320746865207a65726f2061646472657373000000000060448201526064015b60405180910390fd5b6001600160a01b0381163014156200018e5760405162461bcd60e51b815260206004820152601860248201527f6163636f756e74206973207468697320636f6e7472616374000000000000000060448201526064016200012a565b6007546040516001600160a01b038084169216907fb532073b38c83145e3e5135377a08bf9aab55bc0fd7c1179cd4fb995d2a5159c90600090a3600780546001600160a01b0319166001600160a01b0392909216919091179055565b828054620001f89062000437565b90600052602060002090601f0160209004810192826200021c576000855562000267565b82601f106200023757805160ff191683800117855562000267565b8280016001018555821562000267579182015b82811115620002675782518255916020019190600101906200024a565b506200027592915062000279565b5090565b5b808211156200027557600081556001016200027a565b80516001600160a01b0381168114620002a857600080fd5b919050565b634e487b7160e01b600052604160045260246000fd5b600082601f830112620002d557600080fd5b81516001600160401b0380821115620002f257620002f2620002ad565b604051601f8301601f19908116603f011681019082821181831017156200031d576200031d620002ad565b816040528381526020925086838588010111156200033a57600080fd5b600091505b838210156200035e57858201830151818301840152908201906200033f565b83821115620003705760008385830101525b9695505050505050565b60008060008060008060c087890312156200039457600080fd5b6200039f8762000290565b9550620003af6020880162000290565b9450620003bf6040880162000290565b60608801519094506001600160401b0380821115620003dd57600080fd5b620003eb8a838b01620002c3565b945060808901519150808211156200040257600080fd5b506200041189828a01620002c3565b92505060a087015160ff811681146200042957600080fd5b809150509295509295509295565b600181811c908216806200044c57607f821691505b602082108114156200046e57634e487b7160e01b600052602260045260246000fd5b50919050565b611cfc80620004846000396000f3fe608060405234801561001057600080fd5b50600436106101c45760003560e01c80638da5cb5b116100f9578063ad38bf2211610097578063c01e1bd611610071578063c01e1bd6146103ad578063dd62ed3e146103c5578063f9f92be4146103fe578063fe575a871461041157600080fd5b8063ad38bf2214610376578063ae1f6aaf14610389578063bd1024301461039c57600080fd5b80639fd0506d116100d35780639fd0506d1461032c578063a457c2d71461033d578063a6f9dae114610350578063a9059cbb1461036357600080fd5b80638da5cb5b146102ec57806395d89b41146103115780639dc29fac1461031957600080fd5b8063313ce5671161016657806340c10f191161014057806340c10f19146102965780635c975abb146102a957806370a08231146102bb5780638456cb59146102e457600080fd5b8063313ce56714610266578063395093511461027b5780633f4ba83a1461028e57600080fd5b806318160ddd116101a257806318160ddd146102195780631a8952661461022b57806323b872dd146102405780632d88af4a1461025357600080fd5b806301ffc9a7146101c957806306fdde03146101f1578063095ea7b314610206575b600080fd5b6101dc6101d7366004611a6b565b61043d565b60405190151581526020015b60405180910390f35b6101f961049b565b6040516101e89190611a95565b6101dc610214366004611b06565b61052d565b6002545b6040519081526020016101e8565b61023e610239366004611b30565b61063e565b005b6101dc61024e366004611b4b565b6106e1565b61023e610261366004611b30565b610849565b60055460405160ff90911681526020016101e8565b6101dc610289366004611b06565b6108af565b61023e6109b2565b61023e6102a4366004611b06565b610a4f565b600854600160a01b900460ff166101dc565b61021d6102c9366004611b30565b6001600160a01b031660009081526020819052604090205490565b61023e610b60565b6007546001600160a01b03165b6040516001600160a01b0390911681526020016101e8565b6101f9610bfd565b61023e610327366004611b06565b610c0c565b6008546001600160a01b03166102f9565b6101dc61034b366004611b06565b610d18565b61023e61035e366004611b30565b610e1b565b6101dc610371366004611b06565b610e7e565b61023e610384366004611b30565b610f81565b6006546102f9906001600160a01b031681565b6009546001600160a01b03166102f9565b6005546102f99061010090046001600160a01b031681565b61021d6103d3366004611b87565b6001600160a01b03918216600090815260016020908152604080832093909416825291909152205490565b61023e61040c366004611b30565b611087565b6101dc61041f366004611b30565b6001600160a01b03166000908152600a602052604090205460ff1690565b60007f01ffc9a7a5cef8baa21ed3c5c0d7e23accb804b619e9333b597f47a0d84076e2631d1d8b6360e01b6001600160e01b031984166301ffc9a760e01b148061049357506001600160e01b0319848116908216145b949350505050565b6060600380546104aa90611bba565b80601f01602080910402602001604051908101604052809291908181526020018280546104d690611bba565b80156105235780601f106104f857610100808354040283529160200191610523565b820191906000526020600020905b81548152906001019060200180831161050657829003601f168201915b5050505050905090565b600854600090600160a01b900460ff16156105845760405162461bcd60e51b815260206004820152601260248201527118dbdb9d1c9858dd081a5cc81c185d5cd95960721b60448201526064015b60405180910390fd5b336000818152600a602052604090205460ff16156105d25760405162461bcd60e51b81526020600482015260166024820152600080516020611c83833981519152604482015260640161057b565b6001600160a01b0384166000908152600a6020526040902054849060ff161561062b5760405162461bcd60e51b81526020600482015260166024820152600080516020611c83833981519152604482015260640161057b565b610635858561112d565b95945050505050565b6009546001600160a01b031633146106985760405162461bcd60e51b815260206004820152601d60248201527f63616c6c6572206973206e6f742074686520626c61636b6c6973746572000000604482015260640161057b565b6001600160a01b0381166000818152600a6020526040808220805460ff19169055517f117e3210bb9aa7d9baff172026820255c6f6c30ba8999d1c2fd88e2848137c4e9190a250565b600854600090600160a01b900460ff16156107335760405162461bcd60e51b815260206004820152601260248201527118dbdb9d1c9858dd081a5cc81c185d5cd95960721b604482015260640161057b565b336000818152600a602052604090205460ff16156107815760405162461bcd60e51b81526020600482015260166024820152600080516020611c83833981519152604482015260640161057b565b6001600160a01b0385166000908152600a6020526040902054859060ff16156107da5760405162461bcd60e51b81526020600482015260166024820152600080516020611c83833981519152604482015260640161057b565b6001600160a01b0385166000908152600a6020526040902054859060ff16156108335760405162461bcd60e51b81526020600482015260166024820152600080516020611c83833981519152604482015260640161057b565b61083e878787611143565b979650505050505050565b6007546001600160a01b031633146108a35760405162461bcd60e51b815260206004820152601760248201527f63616c6c6572206973206e6f7420746865206f776e6572000000000000000000604482015260640161057b565b6108ac816111ac565b50565b600854600090600160a01b900460ff16156109015760405162461bcd60e51b815260206004820152601260248201527118dbdb9d1c9858dd081a5cc81c185d5cd95960721b604482015260640161057b565b336000818152600a602052604090205460ff161561094f5760405162461bcd60e51b81526020600482015260166024820152600080516020611c83833981519152604482015260640161057b565b6001600160a01b0384166000908152600a6020526040902054849060ff16156109a85760405162461bcd60e51b81526020600482015260166024820152600080516020611c83833981519152604482015260640161057b565b6106358585611208565b6008546001600160a01b03163314610a0c5760405162461bcd60e51b815260206004820152601860248201527f63616c6c6572206973206e6f7420746865207061757365720000000000000000604482015260640161057b565b6008805460ff60a01b191690556040513381527f5db9ee0a495bf2e6ff9c91a7834c1ba4fdd244a5e8aa4e537bd38aeae4b073aa906020015b60405180910390a1565b600854600160a01b900460ff1615610a9e5760405162461bcd60e51b815260206004820152601260248201527118dbdb9d1c9858dd081a5cc81c185d5cd95960721b604482015260640161057b565b6001600160a01b0382166000908152600a6020526040902054829060ff1615610af75760405162461bcd60e51b81526020600482015260166024820152600080516020611c83833981519152604482015260640161057b565b6006546001600160a01b03163314610b515760405162461bcd60e51b815260206004820181905260248201527f4f6e6c79204c32204272696467652063616e206d696e7420616e64206275726e604482015260640161057b565b610b5b838361123e565b505050565b6008546001600160a01b03163314610bba5760405162461bcd60e51b815260206004820152601860248201527f63616c6c6572206973206e6f7420746865207061757365720000000000000000604482015260640161057b565b6008805460ff60a01b1916600160a01b1790556040513381527f62e78cea01bee320cd4e420270b5ea74000d11b0c9f74754ebdbfc544b05a25890602001610a45565b6060600480546104aa90611bba565b600854600160a01b900460ff1615610c5b5760405162461bcd60e51b815260206004820152601260248201527118dbdb9d1c9858dd081a5cc81c185d5cd95960721b604482015260640161057b565b6001600160a01b0382166000908152600a6020526040902054829060ff1615610cb45760405162461bcd60e51b81526020600482015260166024820152600080516020611c83833981519152604482015260640161057b565b6006546001600160a01b03163314610d0e5760405162461bcd60e51b815260206004820181905260248201527f4f6e6c79204c32204272696467652063616e206d696e7420616e64206275726e604482015260640161057b565b610b5b83836112e9565b600854600090600160a01b900460ff1615610d6a5760405162461bcd60e51b815260206004820152601260248201527118dbdb9d1c9858dd081a5cc81c185d5cd95960721b604482015260640161057b565b336000818152600a602052604090205460ff1615610db85760405162461bcd60e51b81526020600482015260166024820152600080516020611c83833981519152604482015260640161057b565b6001600160a01b0384166000908152600a6020526040902054849060ff1615610e115760405162461bcd60e51b81526020600482015260166024820152600080516020611c83833981519152604482015260640161057b565b6106358585611388565b6007546001600160a01b03163314610e755760405162461bcd60e51b815260206004820152601760248201527f63616c6c6572206973206e6f7420746865206f776e6572000000000000000000604482015260640161057b565b6108ac816113d7565b600854600090600160a01b900460ff1615610ed05760405162461bcd60e51b815260206004820152601260248201527118dbdb9d1c9858dd081a5cc81c185d5cd95960721b604482015260640161057b565b336000818152600a602052604090205460ff1615610f1e5760405162461bcd60e51b81526020600482015260166024820152600080516020611c83833981519152604482015260640161057b565b6001600160a01b0384166000908152600a6020526040902054849060ff1615610f775760405162461bcd60e51b81526020600482015260166024820152600080516020611c83833981519152604482015260640161057b565b61063585856114e2565b6007546001600160a01b03163314610fdb5760405162461bcd60e51b815260206004820152601760248201527f63616c6c6572206973206e6f7420746865206f776e6572000000000000000000604482015260640161057b565b6001600160a01b03811661103d5760405162461bcd60e51b815260206004820152602360248201527f6e657720626c61636b6c697374657220697320746865207a65726f206164647260448201526265737360e81b606482015260840161057b565b600980546001600160a01b0319166001600160a01b0383169081179091556040517fc67398012c111ce95ecb7429b933096c977380ee6c421175a71a4a4c6c88c06e90600090a250565b6009546001600160a01b031633146110e15760405162461bcd60e51b815260206004820152601d60248201527f63616c6c6572206973206e6f742074686520626c61636b6c6973746572000000604482015260640161057b565b6001600160a01b0381166000818152600a6020526040808220805460ff19166001179055517fffa4e6181777692565cf28528fc88fd1516ea86b56da075235fa575af6a4b8559190a250565b600061113a3384846114ef565b50600192915050565b6000611150848484611614565b6111a2843361119d85604051806060016040528060288152602001611ca3602891396001600160a01b038a1660009081526001602090815260408083203384529091529020549190611797565b6114ef565b5060019392505050565b6008546040516001600160a01b038084169216907f95bb211a5a393c4d30c3edc9a745825fba4e6ad3e3bb949e6bf8ccdfe431a81190600090a3600880546001600160a01b0319166001600160a01b0392909216919091179055565b3360008181526001602090815260408083206001600160a01b0387168452909152812054909161113a91859061119d90866117c6565b6006546001600160a01b031633146112985760405162461bcd60e51b815260206004820181905260248201527f4f6e6c79204c32204272696467652063616e206d696e7420616e64206275726e604482015260640161057b565b6112a2828261182c565b816001600160a01b03167f0f6798a560793a54c3bcfe86a93cde1e73087d944c0ea20544137d4121396885826040516112dd91815260200190565b60405180910390a25050565b6006546001600160a01b031633146113435760405162461bcd60e51b815260206004820181905260248201527f4f6e6c79204c32204272696467652063616e206d696e7420616e64206275726e604482015260640161057b565b61134d828261190b565b816001600160a01b03167fcc16f5dbb4873280815c1ee09dbd06736cffcc184412cf7a71a0fdb75d397ca5826040516112dd91815260200190565b600061113a338461119d85604051806060016040528060258152602001611ccb602591393360009081526001602090815260408083206001600160a01b038d1684529091529020549190611797565b6001600160a01b03811661142d5760405162461bcd60e51b815260206004820152601b60248201527f6163636f756e7420697320746865207a65726f20616464726573730000000000604482015260640161057b565b6001600160a01b0381163014156114865760405162461bcd60e51b815260206004820152601860248201527f6163636f756e74206973207468697320636f6e74726163740000000000000000604482015260640161057b565b6007546040516001600160a01b038084169216907fb532073b38c83145e3e5135377a08bf9aab55bc0fd7c1179cd4fb995d2a5159c90600090a3600780546001600160a01b0319166001600160a01b0392909216919091179055565b600061113a338484611614565b6001600160a01b0383166115515760405162461bcd60e51b8152602060048201526024808201527f45524332303a20617070726f76652066726f6d20746865207a65726f206164646044820152637265737360e01b606482015260840161057b565b6001600160a01b0382166115b25760405162461bcd60e51b815260206004820152602260248201527f45524332303a20617070726f766520746f20746865207a65726f206164647265604482015261737360f01b606482015260840161057b565b6001600160a01b0383811660008181526001602090815260408083209487168084529482529182902085905590518481527f8c5be1e5ebec7d5bd14f71427d1e84f3dd0314c0f7b2291e5b200ac8c7c3b92591015b60405180910390a3505050565b6001600160a01b0383166116785760405162461bcd60e51b815260206004820152602560248201527f45524332303a207472616e736665722066726f6d20746865207a65726f206164604482015264647265737360d81b606482015260840161057b565b6001600160a01b0382166116da5760405162461bcd60e51b815260206004820152602360248201527f45524332303a207472616e7366657220746f20746865207a65726f206164647260448201526265737360e81b606482015260840161057b565b61171781604051806060016040528060268152602001611c5d602691396001600160a01b0386166000908152602081905260409020549190611797565b6001600160a01b03808516600090815260208190526040808220939093559084168152205461174690826117c6565b6001600160a01b038381166000818152602081815260409182902094909455518481529092918616917fddf252ad1be2c89b69c2b068fc378daa952ba7f163c4a11628f55a4df523b3ef9101611607565b600081848411156117bb5760405162461bcd60e51b815260040161057b9190611a95565b506104938385611c0b565b6000806117d38385611c22565b9050838110156118255760405162461bcd60e51b815260206004820152601b60248201527f536166654d6174683a206164646974696f6e206f766572666c6f770000000000604482015260640161057b565b9392505050565b6001600160a01b0382166118825760405162461bcd60e51b815260206004820152601f60248201527f45524332303a206d696e7420746f20746865207a65726f206164647265737300604482015260640161057b565b60025461188f90826117c6565b6002556001600160a01b0382166000908152602081905260409020546118b590826117c6565b6001600160a01b038316600081815260208181526040808320949094559251848152919290917fddf252ad1be2c89b69c2b068fc378daa952ba7f163c4a11628f55a4df523b3ef91015b60405180910390a35050565b6001600160a01b03821661196b5760405162461bcd60e51b815260206004820152602160248201527f45524332303a206275726e2066726f6d20746865207a65726f206164647265736044820152607360f81b606482015260840161057b565b6119a881604051806060016040528060228152602001611c3b602291396001600160a01b0385166000908152602081905260409020549190611797565b6001600160a01b0383166000908152602081905260409020556002546119ce9082611a0f565b6002556040518181526000906001600160a01b038416907fddf252ad1be2c89b69c2b068fc378daa952ba7f163c4a11628f55a4df523b3ef906020016118ff565b600082821115611a615760405162461bcd60e51b815260206004820152601e60248201527f536166654d6174683a207375627472616374696f6e206f766572666c6f770000604482015260640161057b565b6118258284611c0b565b600060208284031215611a7d57600080fd5b81356001600160e01b03198116811461182557600080fd5b600060208083528351808285015260005b81811015611ac257858101830151858201604001528201611aa6565b81811115611ad4576000604083870101525b50601f01601f1916929092016040019392505050565b80356001600160a01b0381168114611b0157600080fd5b919050565b60008060408385031215611b1957600080fd5b611b2283611aea565b946020939093013593505050565b600060208284031215611b4257600080fd5b61182582611aea565b600080600060608486031215611b6057600080fd5b611b6984611aea565b9250611b7760208501611aea565b9150604084013590509250925092565b60008060408385031215611b9a57600080fd5b611ba383611aea565b9150611bb160208401611aea565b90509250929050565b600181811c90821680611bce57607f821691505b60208210811415611bef57634e487b7160e01b600052602260045260246000fd5b50919050565b634e487b7160e01b600052601160045260246000fd5b600082821015611c1d57611c1d611bf5565b500390565b60008219821115611c3557611c35611bf5565b50019056fe45524332303a206275726e20616d6f756e7420657863656564732062616c616e636545524332303a207472616e7366657220616d6f756e7420657863656564732062616c616e63656163636f756e7420697320626c61636b6c69737465640000000000000000000045524332303a207472616e7366657220616d6f756e74206578636565647320616c6c6f77616e636545524332303a2064656372656173656420616c6c6f77616e63652062656c6f77207a65726fa164736f6c6343000809000a",
  "devdoc": {
    "kind": "dev",
    "methods": {
      "allowance(address,address)": {
        "details": "See {IERC20-allowance}."
      },
      "approve(address,uint256)": {
        "details": "Sets `amount` as the allowance of `spender` over the caller's tokens. Returns a boolean value indicating whether the operation succeeded. IMPORTANT: Beware that changing an allowance with this method brings the risk that someone may use both the old and the new allowance by unfortunate transaction ordering. One possible solution to mitigate this race condition is to first reduce the spender's allowance to 0 and set the desired value afterwards: https://github.com/ethereum/EIPs/issues/20#issuecomment-263524729 Emits an {Approval} event."
      },
      "balanceOf(address)": {
        "details": "See {IERC20-balanceOf}."
      },
      "blacklist(address)": {
        "params": {
          "account": "The address to blacklist"
        }
      },
      "blacklister()": {
        "returns": {
          "_0": "Address"
        }
      },
      "changeOwner(address)": {
        "params": {
          "account": "New owner's address"
        }
      },
      "decimals()": {
        "details": "Returns the number of decimals used to get its user representation. For example, if `decimals` equals `2`, a balance of `505` tokens should be displayed to a user as `5,05` (`505 / 10 ** 2`). Tokens usually opt for a value of 18, imitating the relationship between Ether and Wei. This is the value {ERC20} uses, unless {_setupDecimals} is called. NOTE: This information is only used for _display_ purposes: it in no way affects any of the arithmetic of the contract, including {IERC20-balanceOf} and {IERC20-transfer}."
      },
      "decreaseAllowance(address,uint256)": {
        "details": "Atomically decreases the allowance granted to `spender` by the caller. This is an alternative to {approve} that can be used as a mitigation for problems described in {IERC20-approve}. Emits an {Approval} event indicating the updated allowance. Requirements: - `spender` cannot be the zero address. - `spender` must have allowance for the caller of at least `subtractedValue`."
      },
      "increaseAllowance(address,uint256)": {
        "details": "Atomically increases the allowance granted to `spender` by the caller. This is an alternative to {approve} that can be used as a mitigation for problems described in {IERC20-approve}. Emits an {Approval} event indicating the updated allowance. Requirements: - `spender` cannot be the zero address."
      },
      "isBlacklisted(address)": {
        "params": {
          "account": "The address to check"
        }
      },
      "name()": {
        "details": "Returns the name of the token."
      },
      "owner()": {
        "returns": {
          "_0": "Owner's address"
        }
      },
      "paused()": {
        "returns": {
          "_0": "True if paused"
        }
      },
      "pauser()": {
        "returns": {
          "_0": "Pauser's address"
        }
      },
      "setPauser(address)": {
        "params": {
          "account": "New pauser's address"
        }
      },
      "symbol()": {
        "details": "Returns the symbol of the token, usually a shorter version of the name."
      },
      "totalSupply()": {
        "details": "See {IERC20-totalSupply}."
      },
      "transfer(address,uint256)": {
        "details": "Moves `amount` tokens from the caller's account to `recipient`. Returns a boolean value indicating whether the operation succeeded. Emits a {Transfer} event."
      },
      "transferFrom(address,address,uint256)": {
        "details": "Moves `amount` tokens from `sender` to `recipient` using the allowance mechanism. `amount` is then deducted from the caller's allowance. Returns a boolean value indicating whether the operation succeeded. Emits a {Transfer} event."
      },
      "unBlacklist(address)": {
        "params": {
          "account": "The address to remove from the blacklist"
        }
      },
      "updateBlacklister(address)": {
        "params": {
          "newBlacklister": "new blacklister's address"
        }
      }
    },
    "version": 1
  },
  "userdoc": {
    "events": {
      "OwnerChanged(address,address)": {
        "notice": "Emitted when the owner changes."
      },
      "Paused(address)": {
        "notice": "Emitted when the contract is paused."
      },
      "PauserChanged(address,address)": {
        "notice": "Emitted when the pauser changes."
      },
      "Unpaused(address)": {
        "notice": "Emitted when the contract is unpaused."
      }
    },
    "kind": "user",
    "methods": {
      "blacklist(address)": {
        "notice": "Add an account to blacklist"
      },
      "blacklister()": {
        "notice": "Blacklister address"
      },
      "changeOwner(address)": {
        "notice": "Change the owner. Can only be called by the current owner."
      },
      "isBlacklisted(address)": {
        "notice": "Check whether a given account is blacklisted"
      },
      "owner()": {
        "notice": "Return the address of the current owner."
      },
      "pause()": {
        "notice": "Pause the contract."
      },
      "paused()": {
        "notice": "Return whether the contract is paused."
      },
      "pauser()": {
        "notice": "Return the current pauser."
      },
      "setPauser(address)": {
        "notice": "Set a new pauser."
      },
      "unBlacklist(address)": {
        "notice": "Remove an account from blacklist"
      },
      "unpause()": {
        "notice": "Unpause the contract."
      },
      "updateBlacklister(address)": {
        "notice": "Change the blacklister"
      }
    },
    "version": 1
  },
  "storageLayout": {
    "storage": [
      {
        "astId": 469,
        "contract": "contracts/OVMFiatToken.sol:OVMFiatToken",
        "label": "_balances",
        "offset": 0,
        "slot": "0",
        "type": "t_mapping(t_address,t_uint256)"
      },
      {
        "astId": 475,
        "contract": "contracts/OVMFiatToken.sol:OVMFiatToken",
        "label": "_allowances",
        "offset": 0,
        "slot": "1",
        "type": "t_mapping(t_address,t_mapping(t_address,t_uint256))"
      },
      {
        "astId": 477,
        "contract": "contracts/OVMFiatToken.sol:OVMFiatToken",
        "label": "_totalSupply",
        "offset": 0,
        "slot": "2",
        "type": "t_uint256"
      },
      {
        "astId": 479,
        "contract": "contracts/OVMFiatToken.sol:OVMFiatToken",
        "label": "_name",
        "offset": 0,
        "slot": "3",
        "type": "t_string_storage"
      },
      {
        "astId": 481,
        "contract": "contracts/OVMFiatToken.sol:OVMFiatToken",
        "label": "_symbol",
        "offset": 0,
        "slot": "4",
        "type": "t_string_storage"
      },
      {
        "astId": 483,
        "contract": "contracts/OVMFiatToken.sol:OVMFiatToken",
        "label": "_decimals",
        "offset": 0,
        "slot": "5",
        "type": "t_uint8"
      },
      {
        "astId": 1011,
        "contract": "contracts/OVMFiatToken.sol:OVMFiatToken",
        "label": "l1Token",
        "offset": 1,
        "slot": "5",
        "type": "t_address"
      },
      {
        "astId": 1013,
        "contract": "contracts/OVMFiatToken.sol:OVMFiatToken",
        "label": "l2Bridge",
        "offset": 0,
        "slot": "6",
        "type": "t_address"
      },
      {
        "astId": 1137,
        "contract": "contracts/OVMFiatToken.sol:OVMFiatToken",
        "label": "_owner",
        "offset": 0,
        "slot": "7",
        "type": "t_address"
      },
      {
        "astId": 1222,
        "contract": "contracts/OVMFiatToken.sol:OVMFiatToken",
        "label": "_pauser",
        "offset": 0,
        "slot": "8",
        "type": "t_address"
      },
      {
        "astId": 1224,
        "contract": "contracts/OVMFiatToken.sol:OVMFiatToken",
        "label": "_paused",
        "offset": 20,
        "slot": "8",
        "type": "t_bool"
      },
      {
        "astId": 1360,
        "contract": "contracts/OVMFiatToken.sol:OVMFiatToken",
        "label": "_blacklister",
        "offset": 0,
        "slot": "9",
        "type": "t_address"
      },
      {
        "astId": 1364,
        "contract": "contracts/OVMFiatToken.sol:OVMFiatToken",
        "label": "_blacklisted",
        "offset": 0,
        "slot": "10",
        "type": "t_mapping(t_address,t_bool)"
      }
    ],
    "types": {
      "t_address": {
        "encoding": "inplace",
        "label": "address",
        "numberOfBytes": "20"
      },
      "t_bool": {
        "encoding": "inplace",
        "label": "bool",
        "numberOfBytes": "1"
      },
      "t_mapping(t_address,t_bool)": {
        "encoding": "mapping",
        "key": "t_address",
        "label": "mapping(address => bool)",
        "numberOfBytes": "32",
        "value": "t_bool"
      },
      "t_mapping(t_address,t_mapping(t_address,t_uint256))": {
        "encoding": "mapping",
        "key": "t_address",
        "label": "mapping(address => mapping(address => uint256))",
        "numberOfBytes": "32",
        "value": "t_mapping(t_address,t_uint256)"
      },
      "t_mapping(t_address,t_uint256)": {
        "encoding": "mapping",
        "key": "t_address",
        "label": "mapping(address => uint256)",
        "numberOfBytes": "32",
        "value": "t_uint256"
      },
      "t_string_storage": {
        "encoding": "bytes",
        "label": "string",
        "numberOfBytes": "32"
      },
      "t_uint256": {
        "encoding": "inplace",
        "label": "uint256",
        "numberOfBytes": "32"
      },
      "t_uint8": {
        "encoding": "inplace",
        "label": "uint8",
        "numberOfBytes": "1"
      }
    }
  }
}